:1000000003308A000E2B00000A108A100A118207A2
:1000100000340034003400340034003400345F34E1
:10002000003400340034073400340734003414340E
:100030007F3414347F34143424342A347F342A3403
:10004000123423341334083464346234363449347B
:100050005534223450340034053403340034003431
:1000600000341C342234413400340034413422340E
:100070001C340034143408343E3408341434083446
:1000800008343E34083408340034503430340034FA
:100090000034083408340834083408340034603438
:1000A0006034003400342034103408340434023412
:1000B0003E345134493445343E34003442347F3484
:1000C00040340034423461345134493446342134AC
:1000D000413445344B3431341834143412347F34C1
:1000E0001034273445344534453439343C344A34AB
:1000F000493449343034013471340934053403341B
:100100003634493449344934363406344934493470
:1001100029341E340034363436340034003400348C
:100120005634363400340034083414342234413424
:10013000003414341434143414341434003441347A
:10014000223414340834023401345134093406346E
:1001500032344934793441343E347E3411341134EC
:1001600011347E347F3449344934493436343E3492
:1001700041344134413422347F34413441342234D7
:100180001C347F3449344934493441347F34093490
:100190000934093401343E344134493449347A3421
:1001A0007F340834083408347F34003441347F34D9
:1001B000413400342034403441343F3401347F34FE
:1001C00008341434223441347F34403440344034D1
:1001D00040347F3402340C3402347F347F340434AE
:1001E000083410347F343E344134413441343E3499
:1001F0000000000000000A148A100A11023E0318D1
:100200008A0A82007F3409340934093406343E34C2
:100210004134513421345E347F3409341934293463
:100220004634463449344934493431340134013494
:100230007F34013401343F344034403440343F345F
:100240001F342034403420341F343F344034383499
:1002500040343F3463341434083414346334073482
:100260000834703408340734613451344934453427
:10027000433400347F344134413400340234043494
:100280000834103420340034413441347F34003495
:1002900004340234013402340434403440344034F1
:1002A0004034403400340134023404340034203407
:1002B00054345434543478347F34483444344434DB
:1002C00038343834443444344434203438344434B6
:1002D000443448347F343834543454345434183427
:1002E00008347E340934013402340C34523452342C
:1002F00052343E347F3408340434043478340034C7
:1003000044347D34403400342034403444343D346B
:1003100000347F3410342834443400340034413401
:100320007F34403400347C3404341834043478345A
:100330007C34083404340434783438344434443459
:10034000443438347C3414341434143408340834C9
:100350001434143418347C347C34083404340434B5
:1003600008344834543454345434203404343F343E
:100370004434403420343C344034403420347C34E1
:100380001C342034403420341C343C344034303469
:1003900040343C34443428341034283444340C344D
:1003A0005034503450343C344434643454344C3439
:1003B00044340034083436344134003400340034DA
:1003C0007F3400340034003441343634083400348F
:1003D0001034083408341034083478344634413446
:1003E000463478340A148A100A118207543465346A
:1003F00073347434653420344C344334443400341E
:100400000A108A140A1182074D34613472346C3434
:100410006F346E342034743465347334743465341A
:1004200000340830AC00AC0803192F2A831686125A
:10043000831286122B088039031D232A8316061384
:1004400083120613272A83160613831206178316B0
:100450008612831286160310AB0DAC03132A080014
:1004600083168613831286138316061083120610D2
:100470002A08AB0011228316061083120614080006
:10048000280807394038A900AA00302227087F39F8
:100490008038A900AA003022080083168613831230
:1004A000861783160610831206102908AB00112246
:1004B000831606108312061408008316861383120F
:1004C000861783160610831206148316861083126D
:1004D00086100A30A7002730840083130008031910
:1004E0007F2A0130F800F701F70B742AF80B732A02
:1004F0004A30F700F70B7A2A7D2A800B712A83167F
:100500008610831286142130AA003022C230AA003D
:1005100030221330AA0030222030AA0030220930C5
:10052000AA003022A701A80140220130A500F8301E
:10053000A400A408031D9F2AA5080319A62AA9013F
:100540004D2224080319A503A403992A0830AA0000
:1005500030220C30AA003022152BF701F8012B08AD
:1005600003102C18F707F70CF80CAC18F707F70C6A
:10057000F80C2C19F707F70CF80CAC19F707F70C67
:10058000F80C2C1AF707F70CF80CAC1AF707F70C55
:10059000F80C2C1BF707F70CF80CAC1BF707F70C43
:1005A000F80C08002808A10021081F3C03180D2B97
:1005B00021087F3C031C0D2BA0012008043C031CD8
:1005C0000B2B21084F3C031CF42A2108E03EAA0013
:1005D000AB000530AC00AD227808A200200822074D
:1005E0000420F800A300062B21084F3C0318062B1B
:1005F0002108B03EAA00AB000530AC00AD2278085F
:10060000A20020082207F820F800A3002308A90070
:100610004D22A00ADD2AA9014D220800840183137E
:100620001F30830507309F005D2AA7012708F221AC
:10063000A70AF700A800D22209302702031D162BB3
:10064000A7010130A8004022A70127080022A70A1D
:10065000F700A800D2220C302702031D252B2F2BD8
:02066000630035
:02400E00213F50
:00000001FF
;PIC16F628A
;CRC=C040  CREATED="17-mar-14 19:08"
